{
  "_format": "hh-sol-artifact-1",
  "contractName": "Betting",
  "sourceName": "contracts/Betting.sol",
  "abi": [
    {
      "inputs": [
        {
          "internalType": "uint256",
          "name": "minimum_bet",
          "type": "uint256"
        }
      ],
      "stateMutability": "nonpayable",
      "type": "constructor"
    },
    {
      "inputs": [],
      "name": "Match_ended",
      "outputs": [
        {
          "internalType": "bool",
          "name": "",
          "type": "bool"
        }
      ],
      "stateMutability": "view",
      "type": "function"
    },
    {
      "inputs": [
        {
          "internalType": "uint256",
          "name": "",
          "type": "uint256"
        }
      ],
      "name": "bets",
      "outputs": [
        {
          "internalType": "uint256",
          "name": "bet_amount",
          "type": "uint256"
        },
        {
          "internalType": "uint8",
          "name": "team",
          "type": "uint8"
        },
        {
          "internalType": "address payable",
          "name": "better",
          "type": "address"
        }
      ],
      "stateMutability": "view",
      "type": "function"
    },
    {
      "inputs": [
        {
          "internalType": "uint8",
          "name": "_result",
          "type": "uint8"
        }
      ],
      "name": "close_betting",
      "outputs": [],
      "stateMutability": "nonpayable",
      "type": "function"
    },
    {
      "inputs": [],
      "name": "declare_results",
      "outputs": [],
      "stateMutability": "payable",
      "type": "function"
    },
    {
      "inputs": [
        {
          "internalType": "address",
          "name": "",
          "type": "address"
        }
      ],
      "name": "has_bet",
      "outputs": [
        {
          "internalType": "bool",
          "name": "",
          "type": "bool"
        }
      ],
      "stateMutability": "view",
      "type": "function"
    },
    {
      "inputs": [],
      "name": "min_bet_amt",
      "outputs": [
        {
          "internalType": "uint256",
          "name": "",
          "type": "uint256"
        }
      ],
      "stateMutability": "view",
      "type": "function"
    },
    {
      "inputs": [],
      "name": "owner",
      "outputs": [
        {
          "internalType": "address",
          "name": "",
          "type": "address"
        }
      ],
      "stateMutability": "view",
      "type": "function"
    },
    {
      "inputs": [
        {
          "internalType": "uint8",
          "name": "_team",
          "type": "uint8"
        }
      ],
      "name": "put_bet",
      "outputs": [],
      "stateMutability": "payable",
      "type": "function"
    },
    {
      "inputs": [],
      "name": "result",
      "outputs": [
        {
          "internalType": "uint8",
          "name": "",
          "type": "uint8"
        }
      ],
      "stateMutability": "view",
      "type": "function"
    },
    {
      "inputs": [
        {
          "internalType": "string",
          "name": "_team1_name",
          "type": "string"
        },
        {
          "internalType": "string",
          "name": "_team2_name",
          "type": "string"
        }
      ],
      "name": "setTeamNames",
      "outputs": [],
      "stateMutability": "nonpayable",
      "type": "function"
    },
    {
      "inputs": [],
      "name": "team1_bets_amt",
      "outputs": [
        {
          "internalType": "uint256",
          "name": "",
          "type": "uint256"
        }
      ],
      "stateMutability": "view",
      "type": "function"
    },
    {
      "inputs": [],
      "name": "team1_name",
      "outputs": [
        {
          "internalType": "string",
          "name": "",
          "type": "string"
        }
      ],
      "stateMutability": "view",
      "type": "function"
    },
    {
      "inputs": [],
      "name": "team2_bets_amt",
      "outputs": [
        {
          "internalType": "uint256",
          "name": "",
          "type": "uint256"
        }
      ],
      "stateMutability": "view",
      "type": "function"
    },
    {
      "inputs": [],
      "name": "team2_name",
      "outputs": [
        {
          "internalType": "string",
          "name": "",
          "type": "string"
        }
      ],
      "stateMutability": "view",
      "type": "function"
    },
    {
      "inputs": [],
      "name": "total_bets",
      "outputs": [
        {
          "internalType": "uint256",
          "name": "",
          "type": "uint256"
        }
      ],
      "stateMutability": "view",
      "type": "function"
    }
  ],
  "bytecode": "0x60806040526000600460006101000a81548160ff02191690831515021790555060006005556000600855600060095534801561003a57600080fd5b50604051611a18380380611a18833981810160405281019061005c91906100e4565b336000806101000a81548173ffffffffffffffffffffffffffffffffffffffff021916908373ffffffffffffffffffffffffffffffffffffffff1602179055508060018190555050610111565b600080fd5b6000819050919050565b6100c1816100ae565b81146100cc57600080fd5b50565b6000815190506100de816100b8565b92915050565b6000602082840312156100fa576100f96100a9565b5b6000610108848285016100cf565b91505092915050565b6118f8806101206000396000f3fe6080604052600436106100e85760003560e01c80638ca62fd71161008a578063b46f3ca811610059578063b46f3ca8146102a8578063b7cc3910146102d1578063d4c221a2146102fc578063fcb05d0c14610339576100e8565b80638ca62fd71461020d5780638da5cb5b1461022957806390c9ae7f14610254578063a6a6fe731461027f576100e8565b80633022f2c4116100c65780633022f2c4146101825780634d4f2c9a146101ad5780635cc1ffb9146101b757806365372147146101e2576100e8565b8063125b8454146100ed57806322af00fa146101185780632722deaa14610157575b600080fd5b3480156100f957600080fd5b50610102610364565b60405161010f9190610cba565b60405180910390f35b34801561012457600080fd5b5061013f600480360381019061013a9190610d15565b61036a565b60405161014e93929190610d9f565b60405180910390f35b34801561016357600080fd5b5061016c6103d1565b6040516101799190610cba565b60405180910390f35b34801561018e57600080fd5b506101976103d7565b6040516101a49190610cba565b60405180910390f35b6101b56103dd565b005b3480156101c357600080fd5b506101cc610679565b6040516101d99190610df1565b60405180910390f35b3480156101ee57600080fd5b506101f761068c565b6040516102049190610e0c565b60405180910390f35b61022760048036038101906102229190610e53565b61069f565b005b34801561023557600080fd5b5061023e61091e565b60405161024b9190610ea1565b60405180910390f35b34801561026057600080fd5b50610269610942565b6040516102769190610f4c565b60405180910390f35b34801561028b57600080fd5b506102a660048036038101906102a19190610e53565b6109d0565b005b3480156102b457600080fd5b506102cf60048036038101906102ca91906110a3565b610b3b565b005b3480156102dd57600080fd5b506102e6610bed565b6040516102f39190610cba565b60405180910390f35b34801561030857600080fd5b50610323600480360381019061031e9190611147565b610bf3565b6040516103309190610df1565b60405180910390f35b34801561034557600080fd5b5061034e610c13565b60405161035b9190610f4c565b60405180910390f35b60055481565b6006818154811061037a57600080fd5b90600052602060002090600202016000915090508060000154908060010160009054906101000a900460ff16908060010160019054906101000a900473ffffffffffffffffffffffffffffffffffffffff16905083565b60015481565b60095481565b3373ffffffffffffffffffffffffffffffffffffffff1660008054906101000a900473ffffffffffffffffffffffffffffffffffffffff1673ffffffffffffffffffffffffffffffffffffffff161461046b576040517f08c379a0000000000000000000000000000000000000000000000000000000008152600401610462906111c0565b60405180910390fd5b600460009054906101000a900460ff166104ba576040517f08c379a00000000000000000000000000000000000000000000000000000000081526004016104b19061122c565b60405180910390fd5b60006001600a60009054906101000a900460ff1660ff16146104de576009546104e2565b6008545b905060006001600a60009054906101000a900460ff1660ff16146105085760085461050c565b6009545b905060005b60055481101561067457600a60009054906101000a900460ff1660ff16600682815481106105425761054161124c565b5b906000526020600020906002020160010160009054906101000a900460ff1660ff16036106675760006006828154811061057f5761057e61124c565b5b9060005260206000209060020201600001548484600685815481106105a7576105a661124c565b5b9060005260206000209060020201600001546105c391906112aa565b6105cd919061131b565b6105d7919061134c565b9050600682815481106105ed576105ec61124c565b5b906000526020600020906002020160010160019054906101000a900473ffffffffffffffffffffffffffffffffffffffff1673ffffffffffffffffffffffffffffffffffffffff166108fc829081150290604051600060405180830381858888f19350505050158015610664573d6000803e3d6000fd5b50505b8080600101915050610511565b505050565b600460009054906101000a900460ff1681565b600a60009054906101000a900460ff1681565b600460009054906101000a900460ff16156106ef576040517f08c379a00000000000000000000000000000000000000000000000000000000081526004016106e6906113cc565b60405180910390fd5b60018160ff161480610704575060028160ff16145b610743576040517f08c379a000000000000000000000000000000000000000000000000000000000815260040161073a90611438565b60405180910390fd5b600154341015610788576040517f08c379a000000000000000000000000000000000000000000000000000000000815260040161077f906114a4565b60405180910390fd5b6000349050600660405180606001604052808381526020018460ff1681526020013373ffffffffffffffffffffffffffffffffffffffff1681525090806001815401808255809150506001900390600052602060002090600202016000909190919091506000820151816000015560208201518160010160006101000a81548160ff021916908360ff16021790555060408201518160010160016101000a81548173ffffffffffffffffffffffffffffffffffffffff021916908373ffffffffffffffffffffffffffffffffffffffff160217905550505060018260ff160361088557806008600082825461087d919061134c565b925050819055505b60028260ff16036108aa5780600960008282546108a2919061134c565b925050819055505b6001600760003373ffffffffffffffffffffffffffffffffffffffff1673ffffffffffffffffffffffffffffffffffffffff16815260200190815260200160002060006101000a81548160ff02191690831515021790555060056000815480929190610915906114c4565b91905055505050565b60008054906101000a900473ffffffffffffffffffffffffffffffffffffffff1681565b6003805461094f9061153b565b80601f016020809104026020016040519081016040528092919081815260200182805461097b9061153b565b80156109c85780601f1061099d576101008083540402835291602001916109c8565b820191906000526020600020905b8154815290600101906020018083116109ab57829003601f168201915b505050505081565b3373ffffffffffffffffffffffffffffffffffffffff1660008054906101000a900473ffffffffffffffffffffffffffffffffffffffff1673ffffffffffffffffffffffffffffffffffffffff1614610a5e576040517f08c379a0000000000000000000000000000000000000000000000000000000008152600401610a55906111c0565b60405180910390fd5b600460009054906101000a900460ff1615610aae576040517f08c379a0000000000000000000000000000000000000000000000000000000008152600401610aa5906115b8565b60405180910390fd5b60018160ff161480610ac3575060028160ff16145b610b02576040517f08c379a0000000000000000000000000000000000000000000000000000000008152600401610af990611624565b60405180910390fd5b6001600460006101000a81548160ff02191690831515021790555080600a60006101000a81548160ff021916908360ff16021790555050565b3373ffffffffffffffffffffffffffffffffffffffff1660008054906101000a900473ffffffffffffffffffffffffffffffffffffffff1673ffffffffffffffffffffffffffffffffffffffff1614610bc9576040517f08c379a0000000000000000000000000000000000000000000000000000000008152600401610bc0906111c0565b60405180910390fd5b8160029081610bd891906117f0565b508060039081610be891906117f0565b505050565b60085481565b60076020528060005260406000206000915054906101000a900460ff1681565b60028054610c209061153b565b80601f0160208091040260200160405190810160405280929190818152602001828054610c4c9061153b565b8015610c995780601f10610c6e57610100808354040283529160200191610c99565b820191906000526020600020905b815481529060010190602001808311610c7c57829003601f168201915b505050505081565b6000819050919050565b610cb481610ca1565b82525050565b6000602082019050610ccf6000830184610cab565b92915050565b6000604051905090565b600080fd5b600080fd5b610cf281610ca1565b8114610cfd57600080fd5b50565b600081359050610d0f81610ce9565b92915050565b600060208284031215610d2b57610d2a610cdf565b5b6000610d3984828501610d00565b91505092915050565b600060ff82169050919050565b610d5881610d42565b82525050565b600073ffffffffffffffffffffffffffffffffffffffff82169050919050565b6000610d8982610d5e565b9050919050565b610d9981610d7e565b82525050565b6000606082019050610db46000830186610cab565b610dc16020830185610d4f565b610dce6040830184610d90565b949350505050565b60008115159050919050565b610deb81610dd6565b82525050565b6000602082019050610e066000830184610de2565b92915050565b6000602082019050610e216000830184610d4f565b92915050565b610e3081610d42565b8114610e3b57600080fd5b50565b600081359050610e4d81610e27565b92915050565b600060208284031215610e6957610e68610cdf565b5b6000610e7784828501610e3e565b91505092915050565b6000610e8b82610d5e565b9050919050565b610e9b81610e80565b82525050565b6000602082019050610eb66000830184610e92565b92915050565b600081519050919050565b600082825260208201905092915050565b60005b83811015610ef6578082015181840152602081019050610edb565b60008484015250505050565b6000601f19601f8301169050919050565b6000610f1e82610ebc565b610f288185610ec7565b9350610f38818560208601610ed8565b610f4181610f02565b840191505092915050565b60006020820190508181036000830152610f668184610f13565b905092915050565b600080fd5b600080fd5b7f4e487b7100000000000000000000000000000000000000000000000000000000600052604160045260246000fd5b610fb082610f02565b810181811067ffffffffffffffff82111715610fcf57610fce610f78565b5b80604052505050565b6000610fe2610cd5565b9050610fee8282610fa7565b919050565b600067ffffffffffffffff82111561100e5761100d610f78565b5b61101782610f02565b9050602081019050919050565b82818337600083830152505050565b600061104661104184610ff3565b610fd8565b90508281526020810184848401111561106257611061610f73565b5b61106d848285611024565b509392505050565b600082601f83011261108a57611089610f6e565b5b813561109a848260208601611033565b91505092915050565b600080604083850312156110ba576110b9610cdf565b5b600083013567ffffffffffffffff8111156110d8576110d7610ce4565b5b6110e485828601611075565b925050602083013567ffffffffffffffff81111561110557611104610ce4565b5b61111185828601611075565b9150509250929050565b61112481610e80565b811461112f57600080fd5b50565b6000813590506111418161111b565b92915050565b60006020828403121561115d5761115c610cdf565b5b600061116b84828501611132565b91505092915050565b7f4e6f7420616e206f776e65720000000000000000000000000000000000000000600082015250565b60006111aa600c83610ec7565b91506111b582611174565b602082019050919050565b600060208201905081810360008301526111d98161119d565b9050919050565b7f42657474696e67206973207374696c6c206f70656e0000000000000000000000600082015250565b6000611216601583610ec7565b9150611221826111e0565b602082019050919050565b6000602082019050818103600083015261124581611209565b9050919050565b7f4e487b7100000000000000000000000000000000000000000000000000000000600052603260045260246000fd5b7f4e487b7100000000000000000000000000000000000000000000000000000000600052601160045260246000fd5b60006112b582610ca1565b91506112c083610ca1565b92508282026112ce81610ca1565b915082820484148315176112e5576112e461127b565b5b5092915050565b7f4e487b7100000000000000000000000000000000000000000000000000000000600052601260045260246000fd5b600061132682610ca1565b915061133183610ca1565b925082611341576113406112ec565b5b828204905092915050565b600061135782610ca1565b915061136283610ca1565b925082820190508082111561137a5761137961127b565b5b92915050565b7f5468652062657474696e6720697320636c6f7365640000000000000000000000600082015250565b60006113b6601583610ec7565b91506113c182611380565b602082019050919050565b600060208201905081810360008301526113e5816113a9565b9050919050565b7f496e76616c6964207465616d0000000000000000000000000000000000000000600082015250565b6000611422600c83610ec7565b915061142d826113ec565b602082019050919050565b6000602082019050818103600083015261145181611415565b9050919050565b7f4d6f7265207374616b65206e6565646564000000000000000000000000000000600082015250565b600061148e601183610ec7565b915061149982611458565b602082019050919050565b600060208201905081810360008301526114bd81611481565b9050919050565b60006114cf82610ca1565b91507fffffffffffffffffffffffffffffffffffffffffffffffffffffffffffffffff82036115015761150061127b565b5b600182019050919050565b7f4e487b7100000000000000000000000000000000000000000000000000000000600052602260045260246000fd5b6000600282049050600182168061155357607f821691505b6020821081036115665761156561150c565b5b50919050565b7f42657474696e6720616c726561647920636c6f73656400000000000000000000600082015250565b60006115a2601683610ec7565b91506115ad8261156c565b602082019050919050565b600060208201905081810360008301526115d181611595565b9050919050565b7f496e76616c696420726573756c74000000000000000000000000000000000000600082015250565b600061160e600e83610ec7565b9150611619826115d8565b602082019050919050565b6000602082019050818103600083015261163d81611601565b9050919050565b60008190508160005260206000209050919050565b60006020601f8301049050919050565b600082821b905092915050565b6000600883026116a67fffffffffffffffffffffffffffffffffffffffffffffffffffffffffffffffff82611669565b6116b08683611669565b95508019841693508086168417925050509392505050565b6000819050919050565b60006116ed6116e86116e384610ca1565b6116c8565b610ca1565b9050919050565b6000819050919050565b611707836116d2565b61171b611713826116f4565b848454611676565b825550505050565b600090565b611730611723565b61173b8184846116fe565b505050565b5b8181101561175f57611754600082611728565b600181019050611741565b5050565b601f8211156117a45761177581611644565b61177e84611659565b8101602085101561178d578190505b6117a161179985611659565b830182611740565b50505b505050565b600082821c905092915050565b60006117c7600019846008026117a9565b1980831691505092915050565b60006117e083836117b6565b9150826002028217905092915050565b6117f982610ebc565b67ffffffffffffffff81111561181257611811610f78565b5b61181c825461153b565b611827828285611763565b600060209050601f83116001811461185a5760008415611848578287015190505b61185285826117d4565b8655506118ba565b601f19841661186886611644565b60005b828110156118905784890151825560018201915060208501945060208101905061186b565b868310156118ad57848901516118a9601f8916826117b6565b8355505b6001600288020188555050505b50505050505056fea26469706673582212203a5ca66d8152f374c57a4650908a648f27e789fdeb6e212485d27513a51c7bb864736f6c634300081b0033",
  "linkReferences": {},
  "deployedLinkReferences": {}
}